:020000040800F2
:10000000005F012061020008E56A00080160000845
:10001000C16A00085D120008997C00080000000019
:10002000000000000000000000000000A101000826
:10003000A912000800000000FD0100088D780008EA
:100040007B0200087B0200087B0200087B0200089C
:100050007B0200087B0200087B0200087B0200088C
:100060007B0200087B0200087B0200087B0200087C
:10007000791200087B020008851200087B02000844
:100080007B0200087B0200087B0200087B0200085C
:100090007B0200087B0200087B0200087B0200084C
:1000A0007B0200087B0200087B0200087B0200083C
:1000B0007B0200087B0200087B0200087B0200082C
:1000C0007B0200087B0200087B0200087B0200081C
:1000D0007B0200087B0200087B0200088D7C000880
:1000E0007B0200087B0200087B0200087B020008FC
:1000F0007B020008E97900087B0200087B02000807
:100100007B020008016C00087B0200087B020008EB
:100110007B0200087B0200087B0200087B020008CB
:100120007B0200087B0200087B0200089112000895
:100130007B020008AD1200087B0200087B02000869
:100140007B0200087B0200087B0200087B0200089B
:100150007B0200089D1200087B0200087B02000859
:100160007B0200087B0200087B0200087B0200087B
:100170007B0200087B0200087B02000800000000F0
:100180007B0200087B020008DFF810D000F022FBA1
:100190000048004751000108AFF30080005F0120D4
:1001A0002C4B19680868B0E8F04F80F30988BFF35A
:1001B0006F8F4FF0000080F311887047000000003F
:1001C00008480068006880F308884FF0000080F35A
:1001D000148862B661B6BFF34F8FBFF36F8F00DF35
:1001E00000BF00BF08ED00E0DFF80C00016841F43B
:1001F00070010160704700BF88ED00E0EFF30980F7
:10020000BFF36F8F134B1A681EF0100F08BF20ED5D
:10021000108A20E9F04F106009B44FF0500080F3CD
:100220001188BFF34F8FBFF36F8F1AF0AFFB4FF002
:10023000000080F3118809BC19680868B0E8F04F25
:100240001EF0100F08BFB0EC108A80F30988BFF3CE
:100250006F8F704724030020EFF305807047000084
:100260000648804706480047FEE7FEE7FEE7FEE750
:10027000FEE7FEE7FEE7FEE7FEE7FEE7D9790008C6
:10028000890100082DE9F05F0546002092469B4653
:1002900088460646814640241BE02846414647469C
:1002A000224600F0B1F853465A46C01A914110D385
:1002B00011461846224600F098F82D1A67EB0108FF
:1002C0004F4622460120002100F08FF817EB00096D
:1002D0004E41201EA4F10104DFDC484631462A4687
:1002E0004346BDE8F09F00000649074A08685043AE
:1002F00043F2390210440860400870470149086021
:1003000070470000680400206D4EC64110B5431AC6
:10031000934209D28318881803E010F8011D03F8EE
:10032000011D521EF9D210BD40EA01039B0703D004
:1003300009E008C9121F08C0042AFAD203E011F824
:10034000013B00F8013B521EF9D210BDD2B201E0D0
:1003500000F8012B491EFBD270470022F6E710B5CA
:1003600013460A4604461946FFF7F0FF204610BD23
:10037000421C10F8011B0029FBD1801A704730B5D0
:1003800004460020034600E05B1C934203D2E05C7D
:10039000CD5C401BF8D030BD00F0004230F0004092
:1003A0000AD0C10D01F56071C0F3160042EA015197
:1003B000C20840071143704700200146704730B51E
:1003C0000B46014600202022012409E021FA02F513
:1003D0009D4205D303FA02F5491B04FA02F52844AD
:1003E000151EA2F10102F1DC30BD202A04DB203A07
:1003F00000FA02F1002070479140C2F1200320FA78
:1004000003F3194390407047202A04DB203A21FA75
:1004100002F00021704721FA02F3D040C2F120021D
:10042000914008431946704710B541000CD0C0F305
:10043000C751962908DC7E2909DC06DB410204D07D
:1004400000F0004040F07E5010BD002010BDC1F112
:100450009604C4F1200100FA01F1E04000F0DEF959
:10046000A04010BD2DE9FE4F804681EA0300C00F79
:100470000C46009021F0004123F00045B8EB02004B
:10048000A94105D24046214690461C460B460246ED
:1004900023F00040104347D0270DC7F30A00C3F3F1
:1004A0000A510290401A019040286BDAC3F31300FE
:1004B00040F4801B0098924620B10023D2EB030A3F
:1004C00063EB0B0B01985946C0F140025046FFF711
:1004D0008CFF06460D4650465946019A00F08CF9AD
:1004E00010EB08006141002487EA115284EAE773A7
:1004F0001A4340D0009A62B3019A012A4FEA075288
:1005000015DC001B61EB02014FF0004202EA0752CA
:10051000CDE90042001C41F5801132462B4600F027
:10052000C3F903B0BDE8F08F40462146F9E7001B50
:1005300061EB0201001C41F5801300185B4120189B
:10054000A2F5001747EB030140EAD570B6196D41DB
:1005500011E06D084FEA360645EAC0754FEA0752CA
:10056000001B61EB0201001C41F5801149084FEAB4
:1005700030000019514132462B4603B0BDE8F04F20
:1005800000F083B90098012240000023D0EB020262
:1005900063EBE073009821464FEAE074B8EB00008B
:1005A00061EB0401E9E783F000435BE781F0004180
:1005B00058E72DE9FE4F81EA030404F0004421F0DE
:1005C000004100944FF0000B23F0004350EA010477
:1005D0005ED052EA03045BD0C3F30A54C1F30A5558
:1005E0002C44A4F2F3340194A0FB0254C1F3130190
:1005F00041F48011C3F3130343F4801301FB02445D
:1006000000FB034E840A970A44EA815447EA835761
:10061000A4FB076802958D0A05FB07854FEA932C1A
:1006200004FB0C542705029D4FEA065847EA16378B
:10063000B5EB08056EEB070C870E920E47EA8117A3
:1006400042EA8312A7FB0201B6EB0B0164EB000444
:100650002B0D43EA0C335E1844EB1C50DA4651462E
:10066000E7FB0201C5F313044FEA0B3343EA1453CB
:100670004FEA0432019C43EA0603A4F10C040294FD
:10068000009CCDE900B400F00FF903B0BDE8F08F95
:1006900000200146F9E72DE9F04D81EA030404F05A
:1006A000004B21F0004514464FF0000A23F00041B2
:1006B00050EA050220D054EA01021DD0C5F30A57C2
:1006C0000246C5F31303C1F31300C1F30A5640F405
:1006D000801543F48013A7EB0608101BD64608F2DA
:1006E000FD3873EB050002D308F1010801E0921810
:1006F0005B41B8F1000F03DA00200146BDE8F08D40
:1007000000204FF48011064684460EE0171B73EB61
:10071000050705D3121B63EB050306434CEA010CE6
:1007200049084FEA300092185B4150EA0107EDD1C9
:1007300052EA030012D082EA040083EA050108436A
:1007400005D0101BAB4106D20122002306E0002297
:100750004FF0004302E06FF0010253101AEB060065
:100760004CEB085110EB0A0041EB0B01BDE8F04DDA
:1007700000F08BB8C1F30A52C1F3130140F2FF330A
:1007800041F480119A4202DA00200146704740F29B
:1007900033439A42A2F2334202DC5242FFF734BEA4
:1007A000FFF723BE30B5041E71F1000404DB4FF0E7
:1007B0000044404264EB0101141E73F1000405DBA8
:1007C0001C464FF00043524263EB0403994208BFBA
:1007D000904230BD064C074D06E0E06840F0010352
:1007E00094E8070098471034AC42F6D3FFF7D0FCEA
:1007F0003078040850780408202A06DBCB17203A0A
:1008000041FA02F043EAE07306E041FA02F3D04015
:10081000C2F1200291400843194670470029A8BF41
:100820007047401C490008BF20F00100704710B419
:10083000B0FA80FC00FA0CF050EA010404BF10BCCE
:10084000704749B1CCF1200421FA04F411FA0CF1FB
:1008500018BF012121430843A3EB0C01CB1D4FEA34
:1008600000614FEA102042BF002010BC704700EB2F
:10087000C35010440029A4BF10BC7047401C49005D
:1008800008BF20F0010010BC704710B5141E73F1B2
:10089000000408DA401C41F1000192185B411A4340
:1008A00001D120F0010010BD2DE9F04D92469B468C
:1008B00011B1B1FA81F202E0B0FA80F22032904632
:1008C000FFF793FD04460F4640EA0A0041EA0B0198
:1008D00053465A46084313D0114653EA010019D033
:1008E000C8F140025046FFF78FFD05460E465046C0
:1008F00059464246FFF779FD084305D0012004E040
:1009000020463946BDE8F08D0020054346EAE076F2
:100910002C4337430A986305E40AA0EB0800002241
:10092000FD0A44EA47540A3002D500200146E9E7AF
:10093000010510196941DDE9084500196941BDE863
:10094000F04DA2E770B58C1810F8015B15F00703A5
:1009500001D110F8013B2A1106D110F8012B03E058
:1009600010F8016B01F8016B5B1EF9D12B0705D460
:100970000023521E0DD401F8013BFAE710F8013BA9
:10098000CB1A921C03E013F8015B01F8015B521EC5
:10099000F9D5A142D8D3002070BD000070B55CA08D
:1009A0008EB00068029002AA01214EF2FE7007F09C
:1009B00081F902AE721C01214EF2E37007F07AF960
:1009C000002406AA02214EF20F60069407F072F985
:1009D00007AA02214EF21860079407F06BF908AAE3
:1009E00001214EF20170089407F064F949A009AAA8
:1009F0000068099002214EF20E6007F05BF946A0F4
:100A00000AAA00680A9001214FF4674007F052F9E2
:100A10000BAA01214EF202700B9407F04BF93FA193
:100A20006A46D1E90001CDE90001042144F2AC306D
:100A300007F040F96D4601AA042144F2AB3007F0FB
:100A400039F96A46042144F2AA3007F033F92A1D25
:100A5000042144F2A93007F02DF96A46042144F23A
:100A6000AE3007F027F92A1D042144F2AD3007F01B
:100A700021F92CA00CAA00680C9002214EF2106003
:100A800007F018F928A003AA0068039002214EF28B
:100A9000116007F00FF903AA02214EF2126007F06D
:100AA00009F903AA02214EF2136007F003F919A015
:100AB0000DF115020068059001214EF2057007F056
:100AC000F9F804AA042144F2B630049407F0F2F8CD
:100AD00004AA042144F2B63007F0ECF804AA042179
:100AE00044F2B63007F0E6F802AA01214EF2FE7099
:100AF00007F0E0F8B21C01214EF2E37007F0DAF8DB
:100B000005AA02214EF2282007F0D4F80EB070BDDD
:100B1000AD008000000100001C000000009CD39686
:100B20000000001B08880000000A000038B520A063
:100B3000204C0068012200901103204602F057F873
:100B4000322001F071F90022A114204602F04FF882
:100B5000322001F069F901221103204602F047F822
:100B6000322001F061F90022A114204602F03FF882
:100B7000322001F059F901221103204602F037F822
:100B8000322001F051F90022A114204602F02FF882
:100B9000322001F049F901221103204602F027F822
:100BA0006A4601214EF6014007F084F838BD000086
:100BB00002000000000402402DE9F047604C84B0C0
:100BC00000224FF40061204602F011F84FF4FA7051
:100BD00001F02AF90122D102204602F008F84FF470
:100BE000FA7001F021F9282001F01EF95548DFF8CC
:100BF00058910122006800901103484601F0F7FF68
:100C0000322001F011F90022A114484601F0EFFF53
:100C1000322001F009F901221103484601F0E7FFF3
:100C2000322001F001F90022A114484601F0DFFF53
:100C3000322001F0F9F801221103484601F0D7FFF4
:100C4000322001F0F1F80022A114484601F0CFFF54
:100C5000322001F0E9F801221103484601F0C7FFF4
:100C60006A4601214EF6014007F024F837A007F04C
:100C7000EBF80426414D4FF01F0AE5240022B10293
:100C8000484601F0B4FF01208DF804004FF0000841
:100C90004FF47A77034602AA01A93948CDF80880B3
:100CA000009704F06FFB8DF80440012302AA01A90C
:100CB0003348CDF80880009704F064FB8DF804A059
:100CC000012302AA01A92E48CDF80880009704F05C
:100CD00059FB00244FF0FF0ACDE900788DF808A0F9
:100CE000012301AA02A9264804F04CFB9DF8040048
:100CF00005F8010B601CC4B2B442EDD3012211030C
:100D0000484601F074FF1D4C1EA0217807F09CF8A6
:100D1000617825A007F098F8A1782CA007F094F846
:100D2000E17833A007F090F83AA007F08DF8FFF7CC
:100D300035FE04B03CA0BDE8F04707F085B80000E0
:100D400000140240B00B0008000402404144453743
:100D500038373820434845434B53554D207265671B
:100D600069737465722073686F756C6420626520A6
:100D7000307833333636363738370A000C000020E7
:100D8000C80D002041444537383738204348454393
:100D90004B53554D2072656769737465725B315DA5
:100DA0003A202523780A0000414445373837382057
:100DB000434845434B53554D2072656769737465CD
:100DC000725B325D3A202523780A000041444537A2
:100DD00038373820434845434B53554D207265679B
:100DE00069737465725B335D3A202523780A0000CD
:100DF0004144453738373820434845434B53554DD8
:100E00002072656769737465725B345D3A202523CF
:100E1000780A0000436F6E666967204144453738A1
:100E200037382E2E2E0000004F4B210A0000000004
:100E300010B501242146044801F0CCFE002818BF5B
:100E40000024204610BD000000080240704700004A
:100E50000146014803F090BB2C0C002010B504485B
:100E600003F09CFB042814BF0120002010BD0000EB
:100E70002C0C002010B500F015F801281CBF012033
:100E800010BD074803F002FD040007D14FF40061D4
:100E9000034803F0C5F9002818BF0124204610BDFF
:100EA0002C0C002008B501208DF80000FFF7C0FFD2
:100EB000002804BF00208DF800009DF8000008BD48
:100EC000134610B50A4601460024044803F0A6FE66
:100ED000002818BF0124204610BD00002C0C002063
:100EE000024800220121406810F088BFE002002083
:100EF000134610B50A4601460024044803F034FFA7
:100F0000002818BF0124204610BD00002C0C002032
:100F1000024800220221406810F070BFE002002069
:100F200010B51CA082B000681B4C0090002210215C
:100F3000204601F05CFE4FF47A730222694617489E
:100F400004F04CF901221021204601F050FE14A0BB
:100F50000022006800901021204601F048FE4FF466
:100F60007A73012269460D4804F038F94FF47A7318
:100F7000012201A9094804F07BF801221021204632
:100F800001F035FE9DF8040010F0010018BF0220AA
:100F900002B010BD6699000000000240700D0020F4
:100FA00005000000F8B5064603208DF80000080C87
:100FB0008DF80100080A8DF80200114D14468DF8D5
:100FC000031000221021284601F011FE4FF47A731D
:100FD000042269460B4804F001F9A2B24FF47A7377
:100FE0003146084804F044F800281CBF0120F8BD31
:100FF00001221021284601F0FAFD0020F8BD000072
:1010000000000240700D002038B505460EA00F4CC0
:101010000068009000221021204601F0E8FD4FF406
:101020007A73042269460A4804F0D8F84FF47A73B8
:1010300002222946064804F01BF80122102120460E
:1010400001F0D5FD38BD0000900000000000024016
:10105000700D00202DE9F04784B016460C468146FD
:1010600001F0CAFD05460020B4F1FF3F18BFB4F1FE
:10107000004F77D204F58071CA1701EB1261091293
:101080000029C8BF0802071BB74270D804EB060846
:10109000384E4FF0020A00BF8DF800A0200C8DF8EA
:1010A0000100200A8DF802008DF8034000F068F876
:1010B00000221021304601F09AFD4FF47A73042289
:1010C00069462D4804F08AF838B9BAB24FF47A73F9
:1010D0004946294804F082F818B104B00120BDE85F
:1010E000F08701221021304601F081FD23480022C3
:1010F000102100680190304601F079FD4FF47A73B9
:10110000012201A91C4804F069F84FF47A73012206
:1011100002A9194803F0ACFF01221021304601F06A
:1011200066FD9DF8080010F0010F09D001F064FD84
:10113000401BB0F57A7FD9D904B00320BDE8F08711
:101140003C4404F58070B94440458CBFA8EB0407CB
:101150004FF4807744459FD304B00020BDE8F0876A
:1011600000E004E000F58070A042FBD98BE7374631
:101170008CE7000000000240700D0020A00F000866
:1011800030B532A083B00068009001F035FD304DDD
:10119000044600221021284601F029FD4FF47A73FD
:1011A000012269462B4804F019F801221021284633
:1011B00001F01DFD284900222846096801911021EF
:1011C00001F015FD4FF47A73012201A9214804F0C2
:1011D00005F84FF47A73012202A91E4803F048FF74
:1011E00001221021284601F002FD9DF8080010F0B0
:1011F000010F28D001F000FD001BB0F57A7F02D965
:1012000003B0032030BD1448002210210068019073
:10121000284601F0ECFC4FF47A73012201A90D4835
:1012200003F0DCFF4FF47A73012202A9094803F0AE
:101230001FFF01221021284601F0D9FC9DF808006B
:1012400010F0010FD6D103B0002030BD0600000021
:1012500000000240700D0020A00F000802A006F060
:10126000F3FD00F0BFF8F9E74275734661756C74E1
:101270002121210A00000000014800F0EFBB00001E
:10128000EC0E0020014800F0E9BB00004C0F0020EC
:10129000014800F0E3BB0000B00C0020014800F062
:1012A000DDBB0000100D002070470000014800F079
:1012B0003EBF0000FC4400202DE9F041044621B16E
:1012C0004FF40060E060C000A060E06900250028E5
:1012D0000CBF4FF4806028464026226811683D4BC1
:1012E0000B40D4E9021C41EA0C01084340F40070B1
:1012F0001843106020680768012000F095FD206801
:1013000007602068466020684668012000F08CFD78
:1013100020684660206885602068C560216888690B
:101320004FF64172104040F0800088612068866965
:10133000012000F079FD206886612068C561206881
:10134000C569012000F070FD2068C561206800F5C6
:1013500080518869204A104040F0040040F0087035
:101360008861206800F580508569012000F05CFDEF
:10137000206800F5805085612068184900F580508C
:101380000160206800F580500568012000F04CFDE8
:10139000206800F580500560A069012808D1206808
:1013A00000F58050C16941F0400141F48031C161D4
:1013B00060690B4A818811640178C37841EA03614E
:1013C000837840781B0443EA002008435064BDE85A
:1013D000F08100000F8120FF233FDEF88020C10252
:1013E0000080024072B600220F4C4FF4C8512046D4
:1013F00001F0FDFB42F6DF654FF48051204601F01D
:10140000EEFB6423112209A10D4804F045FD4FF4C1
:10141000FA722B461946491EB1F1FF3FFBDC501E04
:101420000204120CF6D1E7E700000240537973740E
:10143000656D20696E204552524F52210A0000000E
:10144000200E0020124A012392F809C0BCF1000FBF
:101450001BD192F809C0002302F80C3092F809C0A1
:1014600002EB8C0CCCF80400507A02F1080C00F866
:101470000C30507A00F1010C82F809C0303008704D
:101480003A2048702F208870CB70184670470000B3
:101490009C45002030B4B3F5804F18BF6FF0704109
:1014A00005D000BF40F8221030BC0020704750F833
:1014B0002230DFF828C08D8903EA0C03D1E900C48B
:1014C0004CEA041C8C688969240244EA05444CEA0D
:1014D000040C4CEA01011943E4E700000000F0CFDE
:1014E00070B40B6850F82320DFF84CC0D1E90356E4
:1014F00002EA0C0CD1E90142144335432C434D69F7
:101500002C438D692C43CD692C430D6A2C434D6AC5
:101510002C438D6A2C43CD6A2C43CD6B096B2C4335
:10152000214341EA0C01082A08BF41F0400140F87C
:10153000231070BC002070478000F0FF10B400EB57
:1015400082004268D1E9003C43EA0C13D1F808C09C
:101550008C894FEA0C2C4CEA044C43EA0C03B1F89A
:1015600010C00A4C02F0404204EB0C5C43EA0C034E
:1015700091F814C0640104EB0C6C896943EA0C0314
:1015800019431143416010BC002070470000F0FF78
:1015900030B482B04FF0000CCDF804C090F83C207D
:1015A000012A01BF022002B030BC7047012280F83E
:1015B0003C200A6807230468092A14D9E5680A3A16
:1015C00002EB420203FA02F225EA0202E2600B7821
:1015D0008A680A3B03EB430302FA03F30268D46808
:1015E0002343D36011E0256902EB420203FA02F2C1
:1015F00025EA020222610B788A6803EB430302FAB0
:1016000003F302681469234313614A681F23072AFE
:1016100016D20468656B521E02EB820203FA02F2D4
:1016200025EA020262630B790A885B1E92B203EB21
:10163000830302FA03F30268546B234353632DE0E0
:1016400004680D2A15D2256BD21F02EB820203FA21
:1016500002F225EA020222630B790A88DB1F92B2AA
:1016600003EB830302FA03F30268146B234313634F
:1016700014E0E56A0D3A02EB820203FA02F225EA6F
:101680000202E2620B790A880D3B92B203EB8303FC
:1016900002FA03F30268D46A2343D362254B046839
:1016A000234A9C4204BF0C68122C03D1546844F4B2
:1016B0008004546004689C422FD10B68102B18BF23
:1016C000112B2AD1536843F4000353600968102991
:1016D00023D11949194A0968B1FBF2F101EB8101E3
:1016E00049000191009118D0B1F1004F1BD200299F
:1016F000D8BF002105DD11F0010102D0019A521E70
:101700000192009A491C521C914206DA019B891CE5
:101710005B1E5B1E01939142F8DB80F83CC002B077
:10172000002030BC70470199491E0191FCD1F4E7BB
:1017300000230140002001401803002040420F0018
:1017400070B504004FF0000504BF012070BD206C8F
:10175000002628B9204600F0ADF8666484F83C60A5
:10176000206C10F0100F18BF012503D084F83C60E6
:10177000284670BD206C20F4885040F002002064A0
:101780004948416821F44031416041686268114331
:1017900041602068416821F480714160206841689F
:1017A000226941EA022141602068416821F04071CC
:1017B000416020684168A2681143416020688168E7
:1017C00021F40061816020688168E26811438160D2
:1017D000A06A6FF07061C8422068816821F0706172
:1017E00081602068816808BF21F040510BD0A26A57
:1017F000114381602068816821F040518160206838
:101800008168E26A114381602068816821F00201E9
:10181000816020688168227E41EA4201816094F8FB
:10182000200000282068416808BF21F400610ED024
:1018300041F4006141602068416821F460414160E9
:1018400020684168194B626A03EB423211434160E0
:101850002068C16A21F47001C1622068C16AA28B4C
:10186000134B03EB02521143C1622068816821F4DB
:10187000007181602068816894F8302041EA42213B
:1018800081602068816821F48061816020688168BE
:10189000626941EA822181606664206C20F0020066
:1018A00040F00100206461E70023014000E0FFFFF9
:1018B0000000F0FF30B587B0002100910191029146
:1018C0000391049104682D492D4A08232D48A4F161
:1018D00080454FF0030CB5F5903519D02A4DAC4238
:1018E0002DD10C6844F400740C60096801F4007197
:1018F0000591116841F001011160116801F00101C9
:101900000591CDE9003C694601F064F807B030BDAF
:101910000C6844F480740C60096801F480710591CE
:10192000116841F001011160116801F00101059198
:10193000CDE9003C694601F04DF807B030BDA4F197
:101940008045B5F591351CBF07B030BD0C6844F437
:1019500080640C60096801F480610591116841F0B0
:1019600001011160116801F001010591CDE9003C10
:10197000694601F02FF807B030BD0000443802403E
:101980003038024000000240002101402DE9F041C2
:101990000446876D01F030F9054694F835000026BD
:1019A000022806D08020606584F834600120BDE8FC
:1019B000F0812068016821F016010160206841690A
:1019C00021F080014161206C002804BFA06C002838
:1019D00004D02068016821F00801016020680168D6
:1019E00021F0010101602068006810F0010F12D0A1
:1019F00001F002F9401B052808D92020606503206A
:101A000084F8350084F83460BDE8F081206800680F
:101A100010F0010FECD194F85C003F2101FA00F0C6
:101A2000B860012084F8350084F834600020BDE8F7
:101A3000F08190F83510022903D080214165012002
:101A40007047052180F835100068016821F0010118
:101A5000016000207047406D704700002DE9F84399
:101A600004460027009773484FF41651A56D00688F
:101A7000B0FBF1F92E6894F85C00082101FA00F03F
:101A8000304211D02068026812F0040F0CD00268B6
:101A900022F00402026094F85C0001FA00F0A860F1
:101AA000606D40F00100606594F85C004FF0010843
:101AB00008FA00F0304209D02168496911F0800F1E
:101AC00004D0A860606D40F00200606594F85C107E
:101AD00004208840304209D02168096811F0020FC3
:101AE00004D0A860606D40F00400606594F85C105C
:101AF00010208840304220D02168096811F0080F7A
:101B00001BD0A8602068016811F4802F09D00068FC
:101B100010F4002F02D0A16C79B10CE0216C51B906
:101B20000BE0016811F4807F03D1016821F0080106
:101B30000160216C09B12046884794F85C10202090
:101B4000884030424AD02168096811F0100F45D012
:101B5000A86094F8350005282068016809D011F4C0
:101B6000802F2BD0006810F4002F24D0E16B21B31C
:101B700032E021F0160101602068416921F0800106
:101B80004161206C002804BFA06C002804D02068AC
:101B9000016821F00801016094F85C004FF03F01FA
:101BA00001FA00F0A86084F8358084F83470216D63
:101BB000D1BBBDE8F883616C71B90FE0016811F425
:101BC000807F07D1016821F01001016084F8358021
:101BD00084F83470E16B09B120468847606D0028B5
:101BE00008BFBDE8F883606D10F0010F17D04FF00B
:101BF000050084F835002068016821F001010160CA
:101C0000009800F101000090484504D82068006861
:101C100010F0010FF4D184F8358084F83470E16C51
:101C2000002908BFBDE8F883204601B0BDE8F043B5
:101C3000084700001803002070B5044600F0DCFFE0
:101C40000646002C04BF012070BD022084F8350038
:101C5000002584F834502068016821F001010160FA
:101C60002068006810F0010F10D000BF00F0C4FF22
:101C7000801B052805D920206065032084F83500E5
:101C800070BD2068006810F0010FEFD1216808686E
:101C90003D4A1040D4E901231A43D4E9033C43EA06
:101CA0000C031A4363691A43A3691A43E3691A438D
:101CB000236A1A431043626A042A03D1D4E90B232E
:101CC0001A4310430860D4F800C0DCF81400012364
:101CD00020F00701606A40EA0102042837D1A16AB6
:101CE000E06A0A4318B3A66956B1B6F5005F14D08E
:101CF00000291CBF0129022921D003291CD026E07C
:101D000019B1012905D0022921D110F0807F1ED000
:101D100015E0B0F1C07F1AD111E081B1012907D0DF
:101D200002290CD0032908BFB0F1C07F07D00EE014
:101D300010F0807F03D10AE010F0807F07D04FF0D1
:101D40004000606584F835304FF0010070BDCCF87C
:101D5000142020680D4AC1B2A1F11001A2FB01219B
:101D60000B4A4FEA11110329525CE2656FF3090037
:101D700088BF001D3F219140A0658160656584F8A2
:101D80003530002070BD00003F8010F0ABAAAAAA39
:101D900070C7010870B490F83450846D4FF0000C97
:101DA000012D02BF022070BC7047012580F834501D
:101DB00090F835600025012E1CBF80F834504FF09C
:101DC000020C02D070BC60467047022680F8356075
:101DD000456505682E6826F480262E6005686B60D0
:101DE0008368402B036803BF9A600268D1609960E2
:101DF0001CBF0168CA6090F85C103F2202FA01F132
:101E0000A16001680A6842F016020A60016C21B103
:101E100001680A6842F008020A600068016841F03F
:101E200001010160CEE7000070B5044600F0E4FE59
:101E30000546B4F1FF3F02D004480078044400F0A6
:101E4000DBFE401BA042FAD370BD00000C03002053
:101E50002DE9F041054690F845000C46012804BFE5
:101E60000220BDE8F081012685F84560022085F852
:101E700044002868002C01686AD0404A1140D4E927
:101E800000231A43D4E9023C43EA0C031A43AB682B
:101E90001A4323691A4363691A43EB681A43A36917
:101EA0001A43E3691A43236A1A43636A1A43A36A0B
:101EB0001A4311430160286807680120FFF7B4FF47
:101EC00028680760D4E90B010843D4E90D121143D7
:101ED0000843E16B0843216C0843616C0843A16C23
:101EE000084329684860286847680120FFF79CFF7D
:101EF000286847602968E06C88602968206DC860A0
:101F0000286881694FF641721140D4E916231A43BB
:101F1000B4F854C0236E43EA0C431A43636E1A4369
:101F2000A36E1A4311438161286887690120FFF776
:101F30007BFF28688761D4E91B0108432968C861D1
:101F40002868C4690120FFF76FFF2868C4610DE0AD
:101F5000D5E9022321F490411A4311430160286816
:101F600004680120FFF760FF2868046085F844607A
:101F7000002085F84500BDE8F08100000F8120FFBA
:101F80002DE9F00390F845C00024BCF1010F02BF19
:101F90000220BDE8F0037047012780F845704FF03C
:101FA000020C80F844C08162002B1CD94FF000481D
:101FB00044F2F456A3F1010501EB441CCCF8008077
:101FC000C4EBC41909EB490902EB8909CCE90169A1
:101FD000AC423ABF0CF12009CCF80C90CCF80C10B4
:101FE000641C9C42E8D3026802F58052D16080F8FC
:101FF0004470002180F84510BDE8F00308467047A2
:102000002DE9F00390F845C00024BCF1010F02BF98
:102010000220BDE8F0037047012780F845704FF0BB
:10202000020C80F844C0C162002B84BF4FF48016BC
:102030005D1E21D901EB441CCCF80060C4EBC41830
:1020400008EB480802EB8808CCF80880D0F81C8020
:10205000B8F1000F05D1DCF8008048F44009CCF855
:102060000090AC423ABF0CF12008CCF80C80CCF8C0
:102070000C10641C9C42DDD3026802F58052116191
:1020800080F84470002180F84510BDE8F003084650
:102090007047704790F845100022012904BF0220C4
:1020A000704710B44FF0010C80F845C0022180F851
:1020B000441000242DE00B68521C03F44073B3F568
:1020C000007F1BD00B6813F4407F1DD04163826BEF
:1020D000521C8263012A08BF01630A68C2F30D42E1
:1020E000121FC263026B92680264C968816280F841
:1020F00044C080F8454010BC00207047C0F838C08C
:102100000163C968816204E0836B5B1C8363C968F7
:102110008162816A0B6813F0004F01D1042ACAD38F
:1021200080F844C080F8454010BC0120704770B56D
:102130000446006800F5805041694FF0000511F039
:10214000400F4FF001060CD0204600F077FA2168CE
:10215000402001F58051486184F8446084F845507E
:102160000EE0406910F0010F0AD0204600F0F0FBAD
:10217000206800F58050466184F8446084F845503A
:1021800021684FF4803001F580514861206800F5E6
:102190008050406910F4004F08BF70BD2046FFF723
:1021A00078FF21684FF4004001F58051486184F8C0
:1021B000446084F8455070BD2DE9F04F85B04FF074
:1021C00000050400029502BF012005B0BDE8F08FB4
:1021D00094F8440020B984F84550204600F064F992
:1021E000A748016841F480410160006800F4804024
:1021F0000090A448016821F4000101600168226A8E
:1022000011430160206800F58050016841F0010130
:10221000016000F0F1FC0646206800F5805000687F
:1022200010F0010F15D000BF00F0E6FC801BB0F5E8
:10223000FA7F07D9032084F8440084F8455005B09C
:10224000BDE8F08F206800F58050006810F0010FA5
:10225000EAD12068006920F01C0601F03DFB8A49A4
:102260008A4A0144914238BF46F0080615D388498E
:10227000884A0144914238BF46F00C060DD3864986
:10228000864A0144914208D38549084485498842D9
:1022900034BF46F0040646F01006206806614FF48D
:1022A00000420021204600F054FB012600287DD189
:1022B000FF20FFF7B9FD6068002878D000F09CFC93
:1022C00081464FF0820B4FF4784A41F2883700BFC5
:1022D00094F8440082282CD084F844B02068016926
:1022E000228A01F01C010AEAC222114321F00201F4
:1022F00041F04108C0F8108000F07EFC054618F05F
:10230000010F10D000F078FC401BB0F5803F05D3E2
:1023100084F84460002084F845000AE020680069E1
:1023200010F0010FEED12068406980B2029084F86D
:10233000446000F061FCA0EB0900B84209D901211A
:102340002046FEF7B9FF84F84460002084F8450079
:1023500052E0029810F0040FBAD04FF480520021DE
:10236000204600F0F6FA002871D100F045FC8046C6
:102370004FF0000B94F8440082282FD0822084F87C
:10238000440020680169228A01F01C010AEAC22285
:10239000114321F0020141F04109C0F8109000F012
:1023A0002BFC054619F0010F12D001E04FE043E08D
:1023B00000F022FC401BB0F5803F04D384F8446059
:1023C00084F845B00AE02068006910F0010FECD1F4
:1023D0002068406980B2029084F8446000F00CFCF0
:1023E000A0EB0800B8420BD901212046FEF764FF9C
:1023F00084F8446084F845B005B00320BDE8F08F50
:10240000029810F0200FB5D002AA1F21204600F03C
:10241000CFF8E0B9029810F0100F1ABF4FF4006126
:10242000E160C4F80CB010F0040F12BFC4F808B09B
:102430004FF48040A06018E0E068A168C00840EA5E
:10244000510082B20021204600F083FA48B10121F8
:102450002046FEF731FF84F8446005B00120BDE856
:10246000F08F40F6FF70FFF7DFFC00212046FEF7FB
:1024700023FF84F8446005B00020BDE8F08F000021
:10248000443802400438014000D3CEFEC0E1E400ED
:1024900040F1E9FD40787D0100796CFC005A620250
:1024A000001F0AFA80F0FA02F0B587B00024009409
:1024B00001940294039404940068A0F18041B1F562
:1024C00020311CBF07B0F0BD3448016841F00071F5
:1024D0000160016801F000710591016841F08061BF
:1024E0000160016801F080610591016841F00061BF
:1024F0000160016801F000610591016841F004018B
:102500000160016801F004010591016841F00101D9
:102510000160016801F001010591016841F040018D
:1025200001600068022500F0400005903220CDE9EE
:10253000000503260B2769461948CDE9036700F01B
:1025400049FA8620CDE90005CDE90246694604979F
:10255000144800F03FFA4FF4D040CDE90005CDE932
:10256000024669460497104800F034FA002205211B
:102570003D2000F0E7FF3D2000F0D4FF0B4C00228F
:10258000E901204600F033FB3220FFF74DFC012229
:102590001102204600F02BFB07B0F0BD303802409E
:1025A00000080240000002400018024000140240EF
:1025B0002DE9F041044690F844001646822804BFF5
:1025C0000220BDE8F081822084F84400206802697E
:1025D000238A4FF4784C02F01C020CEAC3231A43FE
:1025E0004FF4F86303EA8111114321F0020141F035
:1025F0000107076100F000FB17F0010F05464FF0DF
:10260000010712D000F0F8FA401BB0F5803F07D365
:1026100084F84470002084F845000320BDE8F08170
:102620002068006910F0010FECD12068406980B289
:10263000306084F844700020BDE8F08101480068F3
:102640000FF094BCF002002090F84510012904BF5F
:102650000220704770B4012283B080F84520022127
:1026600080F8441001680023D1F800C04CF0080C39
:10267000C1F800C0066831682E4C00914FF4FA553D
:102680002168B1FBF5F1029100BF0299B1F1010C93
:10269000CDF808C0F8D2009931600168D1F800C0C7
:1026A0004CF0040CC1F800C0066831680091216844
:1026B000B1FBF5F1029100BF0299B1F1010CCDF827
:1026C00008C0F8D200993160016801F58051D1F855
:1026D00018C04CF4801CC1F818C0016801F5805680
:1026E000B16900912168B1FBF5F1029100BF029937
:1026F000B1F1010CCDF808C0F8D20099B1610168C0
:1027000001F58051D1F818C04CF4005CC1F818C034
:10271000016801F58051D1F818C04CF0020CC1F8E5
:1027200018C080F8442080F8453003B0002070BC09
:10273000704700001803002090F84510012904BFDD
:102740000220704770B4012283B080F84520022136
:1027500080F84410016801F580518B6923F400531F
:102760008B61016801F580518B6923F002038B6155
:1027700001680023D1F800C02CF0040CC1F800C09F
:1027800006683168254C00914FF4FA552168B1FB79
:10279000F5F1029100BF0299B1F1010CCDF808C02A
:1027A000F8D200993160016801F58051D1F818C064
:1027B0004CF4801CC1F818C0016801F58056B1695D
:1027C00000912168B1FBF5F1029100BF0299B1F1CE
:1027D000010CCDF808C0F8D20099B1610168D1F8B8
:1027E00000C02CF0080CC1F800C0066831680091E8
:1027F0002168B1FBF5F1029100BF0299B1F1010C22
:10280000CDF808C0F8D20099316080F8442080F8F3
:10281000453003B0002070BC704700001803002052
:1028200090F845200023012A04BF022070472DE9BB
:10283000F001012780F84570022280F8442000262C
:1028400079B1D0F82CC0DCF8002012F0004F10D085
:10285000122180F8441080F84560BDE8F0010120A5
:10286000704780F8447080F84560BDE8F0010120B1
:10287000704740F2F455A94221D9B1FBF5F4B1FB00
:10288000F5F205FB1414002C18BF521C012A16D0B7
:10289000002A48D9C2F10104C4EBC41404EB440477
:1028A00001EB8401A2F1010CC1F30C04C16AD1F85F
:1028B000008028F04058C1F80080D3B912E0DCF85D
:1028C000002042F04052CCF80020C26AC1F30C0153
:1028D0005160C16A0A6842F000420A60C16AC96870
:1028E000C16220E0C16AD1F8008048F08058C1F888
:1028F0000080C16A63454D6008D1C16AD1F800808B
:1029000048F00058C1F80080C16A4C60C16AD1F833
:10291000008048F00048C1F80080C16A5B1C934207
:10292000C968C162C2D3016801F580514A6912F0D9
:10293000040F05D004224A61016801F580514E6000
:1029400080F8447080F84560BDE8F00100207047D1
:10295000704770B5044690F84400422804BF022036
:1029600070BD422084F8440020680369B4F810C0A8
:102970004FF4784503F01C0305EACC2C4CEA030322
:102980004FF4F86C0CEA8111194341F0030691B23F
:1029900041612068066100F02FF916F0010F05462D
:1029A0004FF0010611D000F027F9401BB0F5803F31
:1029B00006D384F84460002084F84500032070BDED
:1029C0002068006910F0010FEDD184F84460002008
:1029D00070BD00002DE9F84F7B4D7A4C00224FF07E
:1029E00001094FF0030C4FF00F0A05F1040E00BF70
:1029F0000B6809FA02F63340B34240F0DC800F79ED
:102A000007F00307012F18BF022F19D1D0F8088053
:102A10004FEA42070CFA07FB28EA0B08D1F80CB082
:102A20000BFA07F747EA08078760476827EA0606B0
:102A30000F79C7F3001707FA02F747EA0606466060
:102A40004E683CEA06060BD0C76856000CFA06F83A
:102A500027EA0807D1F8088008FA06F63E43C66060
:102A60000E7906F00306022E11D1D60800EB860778
:102A7000D7F820805607F60E0AFA06FB28EA0B085C
:102A8000D1F810B00BFA06F646EA08063E6207686F
:102A900056000CFA06F827EA080791F8048008F0B7
:102AA000030808FA06F63E4306604E6816F4403FF7
:102AB0007DD0266846F480462660266806F4804667
:102AC000009622F0030606F1804707F59837D7F8FD
:102AD00008889607360F0AFA06FB28EA0B08A0F1C9
:102AE000804BBBF5003B38D0A0F1804BBBF5013BE0
:102AF00008BF4FF0010B30D0A0F1804BBBF5023B7B
:102B000008BF4FF0020B28D0A0F1804BBBF5033B70
:102B100008BF4FF0030B20D0A0F1804BBBF5043B66
:102B200008BF4FF0040B18D0A0F1804BBBF5053B5C
:102B300008BF4FF0050B10D0A0F1804BBBF5063B52
:102B400008BF4FF0060B08D0A0F1804BBBF5073B48
:102B50000CBF4FF0070B4FF0080B0BFA06F646EAD6
:102B60000806C7F808682E684F689E4317F4803F30
:102B700018BF1E432E60DEF800604F689E4317F4B6
:102B8000003F18BF1E43CEF80060104F3E68D1F8DA
:102B900004809E4318F4801F18BF1E433E600C4FF4
:102BA0003E68D1F804809E4318F4001F00E002E064
:102BB00018BF1E433E60521C102AFFF419AFBDE837
:102BC000F88F000044380240003C0140083C0140BE
:102BD0000C3C01400069084018BF01207047426961
:102BE00021EA0203114043EA014181617047002A52
:102BF00008BF090481617047014880687047000080
:102C00000C030020002804BF0120704770B5044663
:102C100090F83D00002520B984F83C50204600F093
:102C200097FB242084F83D002068016821F0010111
:102C300001602068016841F400410160206801687A
:102C400021F40041016000F04DFE544A6168914258
:102C500003D85349814203D804E05249814201D943
:102C6000012070BD50492368B0FBF1F1D3F804C0D6
:102C70002CF03F0C4CEA010CC3F804C063689A4284
:102C800028BF4B1C07D24FF4967359434FF47A7305
:102C9000B1FBF3F14B1C2168D1F820C02CF03F0CA4
:102CA00043EA0C030B6261688A420FD34900401E5D
:102CB000B0FBF1F2521CC2F30B02042A31BF042014
:102CC000B0FBF1F0401CC0F30B0023E0A268002A27
:102CD00053D001EBC10303EB0113A0F1010CBCFBCA
:102CE000F3F35B1C43F480431B051B0D08BF01205D
:102CF00010D0002A49D001EBC10202EB0111401EA5
:102D0000B0FBF1F0401CC0F30B0040F4804000BF6A
:102D100040F400402168CA6922F0FF0222F44F42C9
:102D20001043C861D4E9070101432068026822F01A
:102D3000C00211430160D4E9031001432068826896
:102D400022F0FF0222F4034211438160D4E905011D
:102D500001432068C26822F0FF021143C16020686D
:102D6000016841F0010101602564202084F83D00E4
:102D7000256384F83E50002070BD01EB4103A0F1B3
:102D8000010CBCFBF3F35B1CAEE701EB4101401E01
:102D9000B0FBF1F0401CC0F30B00B9E7A0860100C6
:102DA00080841E0000093D0040420F002DE9F84FCD
:102DB00099469246884604460A9DFFF71DFF06463F
:102DC00094F83D00202840F0A28119230122D14926
:102DD0002046009603F022F9002840F0988194F8EC
:102DE0003C00012800F09381012084F83C00206819
:102DF000016811F0010F03D1016841F00101016088
:102E00002068016821F400610160222084F83D00FF
:102E1000102084F83E0000272764C4F824A0A4F8FA
:102E20002A90608D2085BC48E062E06A21680A68CB
:102E300042F480620A6008281CBF012810F5803F18
:102E400002D0206B112804D12068016841F4807100
:102E500001602B4600224FF001112046009603F03E
:102E6000DDF84FF4007A30B12068006810F4807FFC
:102E700000F0F58040E02069DFF8A0B2B0F5804FA7
:102E800010D0062000EAD819206849F0F00101614D
:102E900033462A460BF10601204603F012F940B1F1
:102EA00000F0DDB808F0FF0040F00101206801618A
:102EB00029E0206808F0FF01016133462A4659469F
:102EC000204603F0FEF8002840F0C98020684169E0
:102ED00081690091016841F4807101602B460022F4
:102EE0004FF001112046009603F098F838B12068A1
:102EF000006810F4807F6CD0C4F840A0AFE0206878
:102F000049F0F101016133462A465946204603F053
:102F1000D8F800285DD1208D48B3012830D0022890
:102F20002068016832D041F4806101602068416905
:102F300080690090208D4FF0200800281CBF6FF0A2
:102F40001009DFF8DCA100F0D98080B203287DD819
:102F5000012828D002282B464FF000025146204677
:102F600000965CD003F05AF800285CD077E0206827
:102F7000416981690091016841F400710160D9E7FC
:102F80002068016821F480610160F0E721F480612C
:102F900001602068016841F40061016020684169B6
:102FA00080690090C6E72068406910F0400F1CD18E
:102FB0002068406910F0100F0CD02068C0F8149001
:102FC000276384F83D8084F83E70206C206484F888
:102FD0003C7044E0FFF710FE811BA94213D895B165
:102FE0002068406910F0400FE2D020680069616AF3
:102FF0000870606A401C6062208D401E2085608DD4
:10300000401E608575E0276384F83D8084F83E703B
:10301000206C40F02000206484F83C701FE002F037
:10302000FDFFE0B91EE02068016821F480610160C5
:1030300020680069616A0870606A401C6062208DC7
:10304000401E2085608D401E608500E01EE02B46FE
:10305000002251462046009602F0E0FF10B1012008
:10306000BDE8F88F2068016841F4007101602068B4
:103070000069616A0870606A401C6062218D491EA7
:103080002185618D491E6185216827E0206840699E
:1030900010F0400F10D12068406910F0100F8CD153
:1030A000FFF7AAFD811BA942ADD8002DABD0206847
:1030B000406910F0400FEED020680069616A087026
:1030C000606A401C6062218D491E2185618D491E08
:1030D000618521684A6912F0040F0AD009690170FC
:1030E000606A401C6062208D401E2085608D401EFD
:1030F0006085208D00287FF428AF00BF84F83D80D4
:1031000084F83E7084F83C700020BDE8F88F0220FF
:10311000BDE8F88F020010000000FFFF0200010070
:10312000040001002DE9F84F99469246884604466E
:103130000A9DFFF761FD074694F83D00202840F006
:10314000FB80192301227E492046009702F066FF8A
:10315000002840F0F18094F83C00012800F0EC8059
:10316000012084F83C002068016811F0010F03D1B0
:10317000016841F0010101602068016821F40061EB
:103180000160212084F83D00102084F83E000026D4
:103190002664C4F824A0A4F82A90608D208569488C
:1031A000E062E06A08281CBF012810F5803F02D0C9
:1031B000206B122804D12068016841F480710160FD
:1031C0002B4600224FF001112046009702F026FF07
:1031D00040B12068006810F4807F1CBF4FF400707D
:1031E0002064A6E02069B0F5804F0ED0062000EAEA
:1031F000D81040F0F001206801613B462A46524950
:10320000204602F05EFF28B193E0206808F0FE013E
:10321000016103E0206808F0FF0101613B462A4696
:103220004A49204602F04DFF002873D120684169C9
:1032300080690090208D4FF0200800285CD03A462D
:103240002946204602F0A1FF40B1206C042870D12D
:103250002068016841F4007101606AE0606A2168D9
:1032600000780861606A421C6262608D401E608561
:10327000208D401E80B2208521684B6913F0040F19
:1032800018BF00280DD010780861606A00F10100B5
:103290006062608DA0F101006085208DA0F10100C9
:1032A00020852068406910F0040F22D12068406911
:1032B00010F4806F0FD021686FF48060486126633E
:1032C00084F83D8084F83E60206C40F00400206467
:1032D00084F83C602AE0B5F1FF3F05D0FFF78CFC95
:1032E000C11BA94217D8B5B12068406910F0040F7E
:1032F000DCD0208D0028A2D12068016841F4007143
:10330000016084F83D8084F83E6084F83C600020D1
:10331000BDE8F88F0DE0266384F83D8084F83E60B8
:10332000206C40F02000206484F83C60206C04286D
:103330008ED00120BDE8F88F0220BDE8F88F000094
:10334000020010000000FFFF080001000200010061
:1033500000B587B000210091019102910391049181
:103360000068A0F18041B1F5A8411CBF07B000BDC5
:103370000F48016841F0020101600068694600F0F1
:1033800002000590C02000901220019003200390BD
:10339000042004900748FFF71DFB0748016841F42B
:1033A00000110160006800F40010059007B000BD36
:1033B000303802400004024040380240002804BF78
:1033C0000120704770B504464CF6CC402168086077
:1033D000216845F255500860D4E900014160216838
:1033E000A0688860FFF708FC05462068C06810F0F8
:1033F000030F10D0FFF700FC401B312806D92068CE
:10340000C06810F0030F01D0032070BD2068C068B1
:1034100010F0030FEED121684AF6AA2008600020C0
:1034200070BD00684AF6AA210160002070470000C4
:103430000248816802781144816070470C030020C3
:103440000B4810B5016841F400710160016841F456
:1034500080610160016841F480710160032000F027
:10346000A3F80F2000F006F800F03EF8002010BD91
:10347000003C024010B5014688B000222D2000F02B
:1034800061F82D2000F04EF813480024016841F443
:1034900080710160006805A900F48070069068469C
:1034A00000F0FAF900F01EFA0C494000B0FBF1F010
:1034B000411E0C480A4A026040F2E732C0E9032488
:1034C000C0E9011402F0ECF800280ABF0548012009
:1034D00002F014F908B010BD4038024040420F001D
:1034E00000200040AC0F00200C4882B0016841F47D
:1034F00080410160006800F4804000900848016845
:1035000041F0805101600068002200F0805000907E
:103510000F21901E02B000F015B8000044380240A0
:10352000403802400028B8BF704700F01F01012258
:1035300002FA01F14009800000F1E020C0F800111A
:1035400070470000174B10B41B68C3F30223C3F18C
:10355000070CBCF1040F88BF4FF0040C1C1D072C96
:1035600034BF0023DB1E012404FA0CFCACF1010C77
:103570000CEA0101994004FA03F35B1E1A4011435F
:1035800000284FEA0111A1BF00F1E02080F80014EB
:1035900010BC704700F00F0000F1E02080F8141D0F
:1035A00010BC70470CED00E0074900F007000A6806
:1035B0004FF6FF031A4042EA002040F0FD7040F051
:1035C00080600860704700000CED00E02DE9F843D2
:1035D000054600784FF0010810F0050F4FF0000786
:1035E0002FD0DFF83891C9F86870FFF705FB4C4C15
:1035F0000646206810F0006F09D000BFFFF7FCFA04
:10360000801B022865D8206810F0006FF6D168682A
:10361000297A800140EA017042490860C9F868804F
:10362000FFF7EAFA0646206810F0006F09D100BFE4
:10363000FFF7E2FA801B02284BD8206810F0006FD9
:10364000F6D0287810F0020F5CD03748016841F0BE
:10365000805101600068354C00F080500090206877
:1036600040F480702060FFF7C7FA0646206810F427
:10367000807F08D1FFF7C0FA801B022829D8206874
:1036800010F4807FF6D02A4C206810F4407027D0C8
:10369000A98901F44071814222D0206820F4407150
:1036A0002448C0F8008007602160206810F0010FF6
:1036B00016D0FFF7A1FA0646206810F0020F08BFE7
:1036C00041F288370CD100BFFFF796FA801BB84251
:1036D00002D90320BDE8F883206810F0020FF3D070
:1036E000E9684FF4407030EA010213481CBF0168DA
:1036F00021F4F81109D001602068A989C1F30B01F8
:10370000084320600020BDE8F883026821F440717E
:1037100022F4F81221F070411143ECE70000474217
:1037200000380240843802404038024000700040B7
:1037300070380240400E474208380240002804BF5B
:10374000012070472DE9F0474D4E04460F46306882
:1037500001F0FF0800F00700B84206D286F80080AA
:10376000306800F00700B84261D12068454D10F084
:10377000020F14D010F0040F03D0286840F4E0507A
:103780002860207810F0080F03D0286840F46040CB
:1037900028602868A16820F0F0000843286020789D
:1037A00010F0010F37D060683749012823D0022874
:1037B00018BF0328096823D011F0020F37D02968F9
:1037C00021F0030141EA00002860FFF715FA814665
:1037D0002868616800F00C00B0EB810F18BF41F25F
:1037E000883A18D0FFF708FAA0EB090050450BD92A
:1037F0000320BDE8F087096811F4003FDFD116E02F
:1038000011F0007FDBD112E02868616800F00C0045
:10381000B0EB810FE6D1306800F00700B84209D95B
:1038200086F80080306800F00700B84202D001201E
:10383000BDE8F087207810F0040F05D02868E16813
:1038400020F4E05008432860207810F0080F06D0DC
:103850002868216920F4604040EAC100286000F037
:1038600061F82968094AC1F30311515CC84008494D
:10387000086008480068FFF7FDFD0020BDE8F087FC
:10388000003C0240083802400038024078C7010876
:1038900018030020100300200F2202600C4A136856
:1038A00003F003034360136803F0F00383601368BD
:1038B00003F4E053C36012684FF4E05303EAD2020A
:1038C00002610448006800F00700086070470000CB
:1038D00008380240003C0240014800687047000080
:1038E000180300200448054900680968044AC1F328
:1038F0008221515CC84070471803002008380240FC
:1039000088C701080448054900680968044AC1F3EA
:103910004231515CC840704718030020083802400B
:1039200088C701081048006810F00C010F4814BF48
:1039300004297047082918BF704710B50C4C21683E
:1039400001F03F02216821680023C1F38811A1FB27
:103950000001FCF797FC2168C1F30141491C4900B3
:10396000B0FBF1F010BD0000083802400024F40064
:1039700004380240002804BF012070472DE9F84FA9
:1039800004460078DFF8CC8310F0010FA8F104059D
:1039900058D008F10400016801F00C01042909D095
:1039A000006800F00C0008280DD1D8F8000010F4D1
:1039B000800F08D0286810F4003F43D060680028CA
:1039C00000F0C1813EE06068B0F5803F19D0B0F5ED
:1039D000A02F28680CBF40F4802020F4803028609D
:1039E00028680CBF40F4803020F480202860606894
:1039F000B8B1FFF701F90646286810F4003F05D07A
:103A000020E0286840F480302860F0E7FFF7F4F801
:103A1000801B642800F22F81286810F4003FF5D045
:103A200010E0FFF7E9F80646286810F4003F09D0D7
:103A3000FFF7E2F8801B642800F21D81286810F46B
:103A4000003FF5D12078C44F10F0020F47D0C34992
:103A5000086810F00C0F16D0086800F00C00082859
:103A600004BFD8F8000010F4800F0CD0E06820B339
:103A70004FF001003860FFF7BFF80646286810F0E5
:103A8000020F09D011E0286810F0020F1CBFE06897
:103A900001280AD000F057B9FFF7AEF8801B0228C2
:103AA0007ED8286810F0020FF6D02868216920F02F
:103AB000F80040EAC100286011E000203860FFF7FC
:103AC0009BF80646286810F0020F08D0FFF794F81C
:103AD000801B022864D8286810F0020FF6D12078E5
:103AE00010F0080F2AD09E489E4E616999B10121BD
:103AF0000160FFF781F88146306810F0020F1DD198
:103B0000FFF77AF8A0EB0900022849D8306810F0D6
:103B1000020FF5D012E000210160FFF76DF8814639
:103B2000306810F0020F09D0FFF766F8A0EB09002B
:103B3000022835D8306810F0020FF5D1207810F047
:103B4000040F7FD088484FF0000B006810F0805FB2
:103B50000AD18548016841F08051016000684FF04A
:103B6000010B00F080500090DFF80092D9F80000BF
:103B700010F4807F1AD1D9F8000040F48070C9F8A1
:103B80000000FFF739F80646D9F8000010F4807FEE
:103B90000CD100BFFFF730F8801B02286BD800E083
:103BA00069E0D9F8000010F4807FF3D0A068704E6F
:103BB00001281BD0052830680CBF40F0040020F01D
:103BC0000100306030680CBF40F0010020F00400BC
:103BD000C6F80000A06841F2883AB8B1FFF70CF8C7
:103BE0008146306810F0020F05D021E0306840F0C7
:103BF00001003060EEE7FEF7FFFFA0EB0900504543
:103C000039D8306810F0020FF5D011E0FEF7F4FF5C
:103C10008146306810F0020F0AD000BFFEF7ECFFBB
:103C2000A0EB0900504526D8306810F0020FF5D1FE
:103C3000BBF1000F06D04C48016821F0805100E034
:103C400000E00160A069E8B34449096801F00C0193
:103C5000082950D002284FF0000038660ED0FEF739
:103C6000CBFF0446286810F0007F6FD0FEF7C4FF3A
:103C7000001B02283AD90320BDE8F88FFEF7BCFFED
:103C80000646286810F0007F09D000BFFEF7B4FF99
:103C9000801B0228EFD8286810F0007FF6D1D4E905
:103CA00007010843A16A334A490802EB0141626AED
:103CB00041EA8211084394F82C1040EA0160C8F8E8
:103CC000000000E042E001203866FEF795FF044660
:103CD000286810F0007F39D1FEF78EFF001B022804
:103CE000C9D8286810F0007FF6D02FE0286810F0BF
:103CF000007FBBD12AE0012808BFBDE8F88FD8F8C3
:103D00000000E26900F4800191421CD1226A00F0B7
:103D10003F01914217D147F6C071626A0140B1EB91
:103D2000821F10D1A26A4FF0FF3300F4403103EB41
:103D30005202B1EB024F06D194F82C1000F07060E3
:103D4000B0EB016F02D00120BDE8F88F0020BDE884
:103D5000F88F000004380240000047420838024053
:103D6000800E4742743802404038024000700040E4
:103D7000703802400000FFFF10B40068406820F077
:103D8000C00424F07F444FEA144CC4F3042381F8A8
:103D900003C004F03F004B708870C4F342340C70D1
:103DA000C2B94FEA1C1202EB82020CF00F0C0CEBB2
:103DB0004202CA701A0902EB820203F00F0303EBFE
:103DC00042024A70020902EB820200F00F0000EB8F
:103DD0004200887010BC00207047000030B40368B7
:103DE0009B6A4B6003681B69C3F30E038B6000681A
:103DF0000068174B402500EA0304C4F3054CC4F3E4
:103E0000062381F800C004F07F004B70887005EA3B
:103E10001444CC70C2B94FEA1C1202EB82020CF0BF
:103E20000F0C0CEB42020A701A0902EB820203F03B
:103E30000F0303EB42024A70020902EB820200F018
:103E40000F0000EB4200887030BC0020704700007B
:103E50007F7F7F00002804BF012070472DE9F041DB
:103E6000417F0446002019B92077204600F078F8F9
:103E7000022060772168CA20486221685320486286
:103E80002068C1684FF0FF0611F0400F4FF00407A3
:103E900015D1791FC160FEF7AFFE05462068C068E6
:103EA00010F0400F0BD100BFFEF7A6FE401BB0F58F
:103EB0007A7F39D82068C06810F0400FF4D02068AD
:103EC000816821F0400121F4E0018160206881686F
:103ED00062681143D4E904231A43114381602168C5
:103EE000E068086120680169228941EA02410161B4
:103EF0002068C16821F08001C1602068816811F0EC
:103F0000200F1CD1C16821F0A001C160FEF774FE32
:103F100005462068C06810F0200F10D1FEF76CFE37
:103F2000401BB0F57A7F05D920684662677701208B
:103F3000BDE8F0812068C06810F0200FEED0206846
:103F4000016C21F4802101642068016CA269114395
:103F5000016420684662012060770020BDE8F0819E
:103F600000B585B000210091019102910391006894
:103F7000A0F18041B1F520511CBF05B000BD022069
:103F80000090000203906846FFF720FB002818BF4E
:103F9000FDF728FA01200249086005B000BD0000C5
:103FA0003C0E47422DE9F0470446007F0D460128AC
:103FB00004BF0220BDE8F0874FF0010984F81C908F
:103FC00002206077E2B1A878E9782A7840EA0140D7
:103FD0006978090241EA423140EA01072168CA20B2
:103FE00048622168532048622068C1684FF0FF088A
:103FF00011F0400F4FF0040A4FF000062FD118E0E7
:10400000687810F0100F03D000F0EF000A306870ED
:10401000E87802F068FD0604687802F064FD46EA7C
:104020000026A87802F05FFD2978304340EA413746
:10403000D4E74FF0FF31C160FEF7DEFD0546206892
:10404000C06810F0400F0AD1FEF7D6FD401BB0F556
:104050007A7F25D82068C06810F0400FF4D021681E
:1040600027F0C00048602068C16821F08001C1606D
:104070002068816811F0200F20D1C16821F0A001D3
:10408000C160FEF7B9FD05462068C06810F0200F3A
:1040900014D100BFFEF7B0FD401BB0F57A7F08D900
:1040A0002068C0F8248084F81DA026770120BDE890
:1040B000F0872068C06810F0200FEBD02068C0F8AF
:1040C000248084F81D9026770020BDE8F08700004A
:1040D0002DE9F05F0446007F0D46012804BF022051
:1040E000BDE8F09F4FF0010A84F81CA00220607721
:1040F00020680026806800F0400072B1002808BFE8
:10410000EE70A8782978EA7840EA014069780902D7
:1041100041EA024140EA010812E0002808BFEE70BF
:10412000287802F0E0FC0704687802F0DCFC47EA3B
:104130000027A87802F0D7FCE978384340EA014824
:104140002168CA2048622168532048622068C168FB
:104150004FF0FF0911F0400F4FF0040B15D14FF055
:10416000FF31C160FEF748FD07462068C06810F0C7
:10417000400F0AD1FEF740FDC01BB0F57A7F31D861
:104180002068C06810F0400FF4D02248216808EA87
:10419000000008602068816821F480218160D5E9F1
:1041A0000301014320688268114381602068C1686F
:1041B00021F08001C1602068816811F0200F1FD1BB
:1041C000C16821F0A001C160FEF716FD0546206818
:1041D000C06810F0200F13D1FEF70EFD401BB0F5A4
:1041E0007A7F08D92068C0F8249084F81DB026771B
:1041F0000120BDE8F09F2068C06810F0200FEBD0D0
:104200002068C0F8249084F81DA026770020BDE81F
:10421000F09F00007F7F7F0010B5FCF717FE10BDF8
:104220002DE9F0430446002783B003200D4684F8AF
:104230003400606C03285DD0B5F5805F04BFA06BCF
:1042400040F0805032D000264FF400684FF0806973
:10425000B5F5006F06D0002D1CBFA06B40F00060CC
:1042600026D023E0009601960021206802F0C4FCCD
:1042700010F0007F01D0404639E06946204603F047
:1042800007F8A0BB019810F4802F0DD0B4F85000AF
:104290000104206802F0E0FC48BB0221206802F023
:1042A00023FD20BB304622E0484620E0A06325E005
:1042B000009601960021206802F09EFC10F0007F1D
:1042C000D9D16946204602F0E3FF80B9019810F485
:1042D000803FE9D0B4F850000104206802F0BCFC33
:1042E00028B90021206802F0FFFC0028DAD0A16B79
:1042F0000843DBE7A06B40F08050A063A06B144E36
:104300004FF0010828B12068866384F834800127C3
:104310000BE0D4E9050CD4E90112E368CDE90050C3
:10432000CDF808C0206802F071FC4FF400712068DD
:1043300002F0CEFC28B121688E63A16B0843A06314
:10434000012784F8348003B03846BDE8F0830000CC
:10435000FF0540007047426F120E0A70426F120A4A
:104360004A8090F87420836F120642EA13224A6052
:1043700090F878200A72C26F120E4A72C26FD0F89B
:104380008030120242EA1362CA60D0F88020C2F381
:1043900003520A74D0F88020C2F30B224A8290F8AC
:1043A0008000C0F346000875012048750020704762
:1043B00030B4426E920F0A70426EC2F383624A704A
:1043C000426EC2F301628A70426E120CCA70B0F87B
:1043D0006420120A0A7190F864204A71826E120DEC
:1043E000CA80826EC2F303420A72B0F86820C2F338
:1043F000C0324A72B0F86820C2F380328A72B0F8D4
:104400006820C2F34032CA72B0F86820C2F30032AA
:104410000A734FF0000C81F80DC0446C4FF4007229
:1044200001236CB1012C3CD0026852499163816B2D
:1044300041F08051816380F8343030BC01207047F6
:10444000B0F86840C56EA405240D44EA95740C616B
:10445000C46EC4F3C2640C75C46EC4F302644C75BC
:10446000C46EC4F342548C75C46EC4F38244CC75DC
:10447000C46EC4F3C2340C760C69641C44650D7EB2
:1044800005F00705AD1C04FA05F545650C7A04F046
:104490000F0403FA04F48465640A6C43C0E917420C
:1044A0000EE090F86840C56EA406A40A44EA1544DC
:1044B0000C610C69641CA4024465C0E91624026600
:1044C000B0F86C20C2F380324A76B0F86C20C2F3A8
:1044D000C6128A7690F86C2002F07F02CA76026FCC
:1044E000D20F0A77026FC2F341724A77026FC2F3AA
:1044F00082628A77026FC2F38352CA77026FC2F375
:10450000405281F8202081F821C0026FC2F300429E
:1045100081F82220B0F87020C2F3C03281F8232045
:10452000B0F87020C2F3803281F82420B0F87020F7
:10453000C2F3403281F82520B0F87020C2F3003277
:1045400081F82620B0F87020C2F3812281F827205C
:10455000B0F87020C2F3012281F8282090F8700092
:10456000C0F3460081F8290081F82A3030BC0020D1
:1045700070470000FF054000426C0A60826C4A6090
:10458000C26C8A60026DCA60426D0A61826D4A61C6
:10459000C26D8A61006EC8610020704770B5044624
:1045A000B0F8500000250104206802F0A1FC18B109
:1045B000A16B0843A06304E00021206802F01CFB0B
:1045C0000546C5F3432070BD2DE9F843056B04464D
:1045D0000068416B11F4004F18BF15F0080F1CD094
:1045E000D4E90A56002E14BF0027BDE8F8832068DE
:1045F00002F02AFB05F8010B010A05F8011B010C6A
:1046000005F8011B000E361F7F1C05F8010B082F53
:10461000EDD3C4E90A56BDE8F883416B4FF00006BC
:1046200011F4807F40F23A584FF0010752D039021E
:1046300081632068C16B21F49D7121F44241C16303
:104640002068C16A21F00101C16215F0080F1ED077
:1046500015F0220F09D0206802F0AEFC28B1A16B42
:104660000843A0632046FFF775FE2068C0F8388035
:1046700084F83470266315F0030F204603D000F051
:104680006BFBBDE8F88300F06BFBBDE8F88315F029
:10469000800F08BFBDE8F88315F0200F09D020680F
:1046A00002F08AFC28B1A16B0843A0632046FFF703
:1046B00051FE15F0030F18BFBDE8F8832068C16AEA
:1046C00021F00801C16284F83470204600F048FBF4
:1046D000BDE8F883416B11F4804F18BF15F0080F47
:1046E00024D0D4E90856002E14BF0027BDE8F88373
:1046F00015F8010B009015F8011B361F40EA012048
:10470000009015F8011B40EA0140009015F8011BCC
:1047100040EA016000906946206802F098FA7F1C28
:10472000082FE5D3C4E90856BDE8F883416B40F291
:104730003A22114208BFBDE8F883416B11F0020F25
:1047400003D0A16B41F00201A163416B11F0080F8E
:1047500003D0A16B41F00801A163416B11F0200F60
:1047600003D0A16B41F02001A163416B11F0100F48
:1047700003D0A16B41F01001A163416B11F4007FE4
:1047800003D0A16B41F00801A16340F23A7181634B
:104790002068C16B21F49D7121F40071C163206810
:1047A00002F00AFCA16B0843A06315F0080F07D0C4
:1047B00084F8347026632046FFF7CCFDBDE8F8830B
:1047C00015F0800F08BFBDE8F88315F0300F2AD030
:1047D000E16B2C480865E06BFDF72BF9002808BF5A
:1047E000BDE8F883E06B846B2068C0F83880204611
:1047F000FFF7D4FE84F834702663062818BF052816
:1048000005D1206802F0D8FBA16B0843A063A06B20
:1048100020B92046FFF700FDBDE8F8832046FFF7EA
:1048200099FDBDE8F88315F0030F22D0216C1648DE
:104830000865206CFDF7FDF8002808BFBDE8F88387
:10484000206C846B2068C0F838802046FFF7A6FEF5
:1048500084F834702663062818BF052805D120681F
:1048600002F0AAFBA16B0843A063A06B0028D5D17E
:10487000CFE7A66384F8347026632046FFF7CCFCAC
:10488000BDE8F8834D720008FB710008002804BFE2
:104890000120704770B5044690F83400002518B91F
:1048A0002577204600F010F9032084F834002046D4
:1048B00000F00CF800281CBF012070BDA563256323
:1048C000012084F83400002070BD00002DE9F04F75
:1048D000002691B0044676200096CDE9016031466D
:1048E0000B460A46206802F091F9002840F0E1806A
:1048F000724D45F8A06F206802F09EF901272F60E5
:10490000B1460196CA46206802F0FCF918BB20683F
:1049100002F018FA4FF080584FF6FF75002808BFD4
:10492000A76407D0A664206802F0ECF998B9A06CDF
:10493000012824D10021206802F08EF9F8B109E0A5
:104940000021206802F088F928B95946206802F051
:1049500091F948B1404684F83470A16B0843A063D4
:1049600011B00120BDE8F08F0021206802F044F969
:1049700081464FEAD07A0198401C019002E0DFF8AE
:1049800040B10198A84202D2BAF1000FD8D0A84293
:1049900028BF4FF08070DED219F0804F14BF6764DB
:1049A0006664ADF81070206802F022F9002808BF94
:1049B0004FF0806059D0606C032840D0206802F02E
:1049C00025FA002851D10021206802F015F960670E
:1049D0000421206802F010F9A0670821206802F085
:1049E0000BF9E0670C21206802F006F9C4F880009A
:1049F000606C032823D004A9206802F087FAA0BBCA
:104A0000606C03281BD0BDF81000206501042068ED
:104A100002F02EFA48BB0021206802F0EDF8606633
:104A20000421206802F0E8F8A0660821206802F05E
:104A3000E3F8E0660C21206802F0DEF8206704212C
:104A4000206802F0D9F8010DE164204605A9FFF7BE
:104A5000AFFC002818BF404607D1B4F8500000232F
:104A60000204206802F0C4F928B184F83470A16B04
:104A70000843A0631DE0D4E90412A0690091CDE9C8
:104A80000120D4E902236168206802F0BFF84FF4E6
:104A90000071206802F01CF9002804BF11B0BDE8C5
:104AA000F08F084922689163A16B0843A06384F8E2
:104AB000347011B00120BDE8F08F00000080254265
:104AC000000010C1FF0540002DE9F04F87B00546FA
:104AD0000020009001900290039004902968A1F1B9
:104AE0008042B2F596321CBF07B0BDE8F08F434854
:104AF0000068424940F400600860086800F4006003
:104B000005903F4800683E4940F00400086008688E
:104B100000F004000590086840F00800086008688C
:104B2000022400F0080005904FF4F850CDE900048D
:104B300003264FF00C08CDE9036869463148FDF7BC
:104B400049FF042700200097CDE90140CDE9036823
:104B500069462D48FDF73EFF2D4C2C484FF48058F8
:104B60002060780660600020A060E0603802C4E940
:104B7000040800014FF02009C4E906094FF4001BA6
:104B80000020C4F830B0C4E908074FF4000AC4E9B3
:104B90000A6A2046FDF750F8002818BFFCF722FCEF
:104BA0002C64A5631C4C1B484FF4806120604FF0BF
:104BB000006060604020A0600020C4E90301C4F8E8
:104BC00030B0C4F81C90C4E908070901C4E90581A4
:104BD000C4E90A6A2046FDF72FF8002818BFFCF741
:104BE00001FCEC63002205213120A563FEF7AAFC3D
:104BF0003120FEF797FC07B0BDE8F08F4438024043
:104C00003038024000080240000C02405864024064
:104C1000B00C0020A0640240100D00202DE9F047E8
:104C200086B0984604461646B1B194F8340001287F
:104C30001EBF022006B0BDE8F0870025A563E26D27
:104C400006EB080090420FD9A06B40F00070A06303
:104C500006B00120BDE8F087A06B40F00060A063C3
:104C600006B00120BDE8F087032084F834002068F6
:104C7000C5622068C26B40F22A331A43C263226CB9
:104C80003148D063226C3148D064206C0565206CBB
:104C90008560206C0068026822F0C0020260206813
:104CA0004FEA482A00F1800C0A464FEA9A0361460F
:104CB000206CFDF76FF8DFF89890012770B120683D
:104CC000C16B21F49571C1632068C0F83890A06B66
:104CD00040F08040A06384F8347031E01D480760E4
:104CE000606C012818BF76024FF0FF30CDE9000A52
:104CF0009020029002200597CDE9030569462068BF
:104D000001F064FFB8F1010F06D98220206331461B
:104D1000206802F053F805E08120206331462068C6
:104D200002F059F8002804BF06B0BDE8F0872168FA
:104D3000C1F83890A16B0843A06384F834702563F0
:104D400006B00120BDE8F087B97100085171000874
:104D5000FF0540008C85254210B5FCF7C1F810BD59
:104D600010B5FCF7D5F810BD2DE9F0475FEA010852
:104D700086B01F460446114604BFA06B40F0006099
:104D800011D094F8340001281EBF022006B0BDE8FF
:104D9000F0870025A563E26DC819904284BFA06B1F
:104DA00040F0007001D9A06332E0032084F83400A1
:104DB0002068C5622068C26B40F21A231A43C2639E
:104DC000E26B3248D063E26B3148D064E06B05653A
:104DD000606C012818BF49024FF09009012F05D9D6
:104DE000A0202063206802F0F7F804E0C4F83090B7
:104DF000206802F0FEF8DFF89CA0012660B121686F
:104E0000C1F838A0A16B0843A06384F8346025631F
:104E100006B00120BDE8F0871F480660E16B402026
:104E20008860E06B0068016821F0C00141F040013A
:104E3000016020687F0200F18002BB084146E06B00
:104E4000FCF7A8FF88B12068C16B21F01A0121F49A
:104E50000071C1632068C0F838A0A06B40F08040AA
:104E6000A06384F834602563D2E74FF0FF30CDE9CA
:104E70000007CDE90295CDE904566946206801F0A6
:104E8000A5FE06B00020BDE8F08700003F720008D4
:104E900051710008FF0540008C852542002804BFA1
:104EA0000120704770B50446406A002500281CBFE9
:104EB0002561656104D0A56294F8510058B905E0F8
:104EC0006068B0F5827F18BFE561F4E784F8505060
:104ED000204600F045F8022084F85100206801685F
:104EE00021F040010160A088218900F4827001F462
:104EF00004410843A18901F400610843217C01F0C9
:104F000002010843217D01F001010843218B01F4D6
:104F100000710843217F01F03801084394F8201004
:104F200001F080010843218D01F4005108432168FC
:104F30000860A069042101EA104094F8241001F0EF
:104F400010010843216848602068C16921F40061AC
:104F5000C1616565012084F85100002070BD00002A
:104F60002DE9F04186B00025009501950295039545
:104F7000049501683848022703240526DFF8DC8001
:104F8000A1F18042B2F5983237D0A1F18042B2F55A
:104F900060521CBF06B0BDE8F08131490A6842F496
:104FA00080420A60096801F480410591016841F07E
:104FB00004010160016801F004010591016841F0FC
:104FC000020101600068694600F0020005900C20B3
:104FD000CDE90007CDE903462248FDF7FBFC4FF47D
:104FE0000050CDE90007CDE90254694604964046D9
:104FF000FDF7F0FC06B0BDE8F0811B490A6842F4F9
:1050000080520A60096801F480510591016841F0FD
:1050100001010160016801F001010591016841F0A1
:10502000020101600068694600F0020005906020FE
:10503000CDE90007CDE903460C48FDF7CBFC202065
:10504000CDE90007CDE90254694604964046FDF7D4
:10505000C1FC06B0BDE8F0813038024000040240D7
:10506000403802400008024044380240000002403C
:105070002DE9F84F0446406800261D4691468A46B1
:105080004FF0040BB0F5827F04BFA068002815D054
:1050900094F85000012804BF0220BDE8F88F0120D9
:1050A00084F85000FDF7A8FD074694F851004FF032
:1050B0000008012818BF02260AD085E084F851B004
:1050C000009313460A46204600F05CF9BDE8F88FCD
:1050D000BAF1000F18BFB9F1000F74D084F851B0C5
:1050E000C4F85480C4F838A0A4F83C90A4F83E90CA
:1050F000C4F83080A4F83480A4F83680C4F8408026
:10510000C4F84480A068B0F5004F09D12068016858
:1051100021F0400101602068016821F480410160B4
:105120002068016811F0400F03D1016841F040018F
:105130000160E0680028E08F0FD058B320688168D4
:1051400011F0010F27D0C068A16B0880A06B801CF4
:10515000A063E08F401EE08727E0D8B12068816817
:1051600011F0010F09D0007BA16B0870A06B401CEF
:10517000A063E08F401EE08709E0FDF73DFDC01B06
:10518000A84203D3B5F1FF3F26D100E025B3E08F5D
:105190000028E3D10CE0FDF72FFDC01BA84203D38C
:1051A000B5F1FF3F18D100E0B5B1E08F0028C5D1BF
:1051B0003A462946204602F0F9F900281CBF202073
:1051C0006065606D00B10126012084F8510084F80B
:1051D00050803046BDE8F88F0326F5E72DE9F84FFB
:1051E000044690F8500000261D4692468B46012842
:1051F00004BF0220BDE8F88F4FF0010984F85090F9
:10520000FDF7FAFC074694F851004FF0000801281A
:1052100018BF02267DD1BBF1000F18BFBAF1000FF5
:1052200078D04FF0030084F85100C4F85480C4F8DB
:1052300030B0A4F834A0A4F836A0C4F83880A4F89C
:105240003C80A4F83E80C4F84480C4F84080A06844
:10525000B0F5004F09D12068016821F040010160DC
:105260002068016841F4804101602068016811F004
:10527000400F03D1016841F040010160E068B0F5E2
:10528000006F606805D0002818BFBAF1010F31D057
:105290003AE0002818BFBAF1010F0BD1206B21684A
:1052A0000088C860206B00F102002063E08EA0F14E
:1052B0000100E086E08E002847D02068816811F068
:1052C000020F09D0216B0988C160206B801C20630C
:1052D000E08E401EE08609E0FDF78EFCC01BA84270
:1052E00003D3B5F1FF3F3DD100E0D5B3E08E0028F8
:1052F000E3D12AE0206B216800780873206B401C02
:105300002063E08E401EE086E08EF0B12068816868
:1053100001E030E02EE011F0020F09D0216B097896
:105320000173206B401C2063E08E401EE08609E084
:10533000FDF762FCC01BA84203D3B5F1FF3F11D1BA
:1053400000E075B1E08E0028E0D13A4629462046BB
:1053500002F06AF900281CBF20206065A06838B9F7
:1053600002E0FFE7032606E02068C168806800903D
:10537000606D00B1012684F8519084F85080304669
:10538000BDE8F88F2DE9F84F044690F8500001264B
:105390000A9F1D4692468B464FF00008012804BF25
:1053A0000220BDE8F88F012084F85000FDF724FCAE
:1053B000814694F851006168012809D0B1F5827FD7
:1053C00003BFA168002904284FF0020840F0DA80EA
:1053D000BBF1000F1ABFBAF1000F002D4FF001080A
:1053E00000F0D08094F8510004281CBF052084F8F8
:1053F000510000206065C4F838A0E587A587C4F88F
:1054000030B0E586A586206460642068016811F0EC
:10541000400F03D1016841F040010160E068B0F540
:10542000006F606804D0002818BF012D58D099E0A3
:10543000002818BF012D41D1206B21680088C86069
:10544000206B00F102002063E08EA0F10100E086F5
:1054500034E02068816811F0020F1CBFE18E002942
:105460000ED0012E0CD1216B0988C160206B00F198
:1054700002002063E08EA0F10100E0864FF00006FC
:105480002068816811F0010F1CBFE18F00290CD04A
:10549000C068A16B0880A06B00F10200A063E08FE0
:1054A000A0F10100E0874FF00106FDF7A5FBA0EB9E
:1054B0000900B84202D3B7F1FF3F5AD1E08E00286D
:1054C00004BFE08F0028C4D14A463946204602F086
:1054D000ABF8002850D020204FF00108606551E063
:1054E000206B216800780873206B401C2063E08EDD
:1054F000401EE08636E02068816811F0020F1CBF74
:10550000E18E00290ED0012E0CD1216B0978017398
:10551000206B00F101002063E08EA0F10100E08625
:105520004FF000062168886810F0010F1CBFE08F63
:1055300000280CD0C868A16B0870A06B00F10100B6
:10554000A063E08FA0F10100E0874FF00106FDF7B6
:1055500053FBA0EB0900B84203D3B7F1FF3F01D0E2
:1055600007E037B1E08E002804BFE08F0028C2D1E9
:10557000AAE74FF0030805E0A06818B92068C168E1
:10558000806800904FF0010084F851004FF0000057
:1055900084F850004046BDE8F88F002804BF012081
:1055A000704770B5044690F8490015460E4628B974
:1055B000002084F84800204600F01AF804F10801A1
:1055C0002068FBF78DFF3146A2682068FBF7B6FF25
:1055D000D4E901022946236BFBF75CFFA168206830
:1055E00050F8212042F0010240F82120002070BD37
:1055F000F0B587B0002423480094019402940394EA
:105600000494016800291CBF07B0F0BD01210160AE
:105610001D48016841F0010101600068022500F0A9
:10562000010005904FF23F00CDE9000503260C274D
:1056300069461648CDE90367FDF7CCF940F23F40D3
:10564000CDE90005CDE90246694604971048FDF70B
:10565000C1F94FF68370CDE90005CDE902466946F0
:1056600004970C48FDF7B6F94FF63370CDE9000505
:10567000CDE90246694604970748FDF7ABF907B044
:10568000F0BD0000CC020020383802400014024077
:105690000018024000100240000C024070477047A2
:1056A000002804BF0120704710B5044690F83D0063
:1056B00028B9002084F83C00204600F01EF80220A3
:1056C00084F83D00211D206802F094F9012084F83F
:1056D000460084F83E0084F83F0084F8400084F8D7
:1056E000410084F8420084F8430084F8440084F8C0
:1056F000450084F83D00002010BD704790F83D1033
:1057000001291CBF01207047022180F83D1001686B
:10571000CA6842F00102CA600068A0F18041B1F598
:10572000803118BFB0F1804F1DD0A0F18041B1F59C
:1057300080611CBFA0F18041B1F5006113D0A0F1E0
:105740008041B1F540611CBFA0F18041B1F58231CB
:1057500009D0A0F18041B1F5A0311CBFA0F180417A
:10576000B1F5C05104D1816801F00701062903D0C9
:10577000016841F00101016000207047704770B579
:105780000446006801694FF0000511F0020F1CBFCC
:10579000C16811F0020F13D06FF002010161012006
:1057A00020772068806910F0030F204602D0FFF7B1
:1057B000E5FF04E000F099F8204600F097F825771F
:1057C0002068016911F0040F1CBFC16811F0040FBB
:1057D00013D06FF0040101610220207720688069F6
:1057E00010F4407F204602D0FFF7C8FF04E000F02D
:1057F0007CF8204600F07AF825772068016911F0DE
:10580000080F1CBFC16811F0080F13D06FF008011A
:105810000161042020772068C06910F0030F204642
:1058200002D0FFF7ABFF04E000F05FF8204600F085
:105830005DF825772068016911F0100F1CBFC16861
:1058400011F0100F13D06FF01001016108202077C4
:105850002068C06910F4407F204602D0FFF78EFF19
:1058600004E000F042F8204600F040F82577206878
:10587000016911F0010F1CBFC16811F0010F05D0C3
:105880006FF001010161204600F031F820680169E4
:1058900011F0800F1CBFC16811F0800F05D06FF0B0
:1058A000800101612046FFF7F9FE2068016911F0CF
:1058B000400F1CBFC16811F0400F05D06FF04001D0
:1058C0000161204600F01CF82068016911F0200FEA
:1058D0001ABFC16811F0200F70BD6FF02001016187
:1058E0002046BDE87040FFF7DABE70477047006899
:1058F000A0F18041B1F5005118BF7047FDF798BD88
:105900007047704770470000F8B5016804460868A2
:10591000CA684B6910F00F0F4FF020064FF00005DA
:1059200060D003F0010C02F490775CEA07077DD0A9
:1059300010F0010F18BF12F4807F03D0216C41F0EA
:105940000101216410F0040F18BF13F0010F03D000
:10595000216C41F00201216410F0020F18BF13F016
:10596000010F03D0216C41F00401216410F0080FF5
:105970001CBF02F0200151EA0C0103D0216C41F060
:1059800008012164216C002908BFF8BD10F0200F28
:105990001EBF12F0200F204602F09AF820684069DE
:1059A000216CC0F3801011F0080F08BF002858D0F8
:1059B000206800F10C0151E8000F20F4907041E8DC
:1059C0000002002AF4D1206800F1140151E8000F10
:1059D00020F0010041E80002002AF4D1206B0128E8
:1059E00016D10AE010F0200F18BF12F0200F3DD0A2
:1059F0002046BDE8F84002F06BB8206800F10C01C9
:105A000051E8000F20F0100041E80002002AF4D114
:105A100084F83E6025632068406910F0400F1CD078
:105A2000206800F1140151E8000F00E01EE020F0B2
:105A3000400041E80002002AF2D1A06B68B172492F
:105A40000165A06BFBF7F5FF002808BFF8BDA06B50
:105A5000016D01B0BDE8F04008472046FFF752FF56
:105A6000F8BD2046FFF74EFF2564F8BD236B012BE0
:105A70007ED110F0100F18BF12F0100F7FD0086801
:105A800048680090486910F0400F45D0A16B086845
:105A900040680004000C1CBFA28D824298BFF8BD74
:105AA000E085C869B0F5807F2ED020680C3050E8C2
:105AB000001F21F4807140E80012002AF5D120680F
:105AC00000F1140151E8000F20F0010041E800024C
:105AD000002AF4D12068143050E8001F21F0400162
